:020000040800F2
:1000000000200020B90F00080510000805100008A6
:1000100000000000000000000000000000000000E0
:1000200000000000000000000000000005100008B3
:100030000000000000000000051000088107000813
:10004000051000080510000805100008051000083C
:10005000051000080510000805100008051000082C
:10006000051000080510000805100008051000081C
:10007000051000080510000805100008051000080C
:100080000510000805100008000000000510000819
:1000900005100008051000080510000805100008EC
:1000A00005100008051000080510000805100008DC
:1000B0000510000800000000051000080000000006
:1000C0005FF808F180B582B000AF78603960084B06
:1000D000074A5168074A0A405A60054B044A51686A
:1000E00078683A6802430A435A60BD4602B080BD50
:1000F00000100240FFFFC2FF80B582B000AF021CBB
:10010000FB1D1A70FB1D1B78002B07D0084B084AFB
:100110001268802149040A431A6005E0044B044A2E
:100120001168044A0A401A60BD4602B080BDC0464C
:1001300000100240FFFFFFFE80B584B000AF786082
:100140000023FB60084B5B68FB60FB680322934362
:10015000FB60FA687B681343FB60034BFA685A60E4
:10016000BD4604B080BDC0460010024080B582B0DC
:1001700000AF78600A1CFB1C1A70FB1C1B78002B5C
:1001800006D0084B074A51697A680A435A6106E06B
:10019000044B044A52697968C9430A405A61BD4612
:1001A00002B080BD0010024080B582B000AF786020
:1001B0000A1CFB1C1A70FB1C1B78002B06D0084B7A
:1001C000074A91697A680A439A6106E0044B044A37
:1001D00092697968C9430A409A61BD4602B080BD00
:1001E0000010024080B582B000AF78600A1CFB1C92
:1001F0001A70FB1C1B78002B06D0084B074AD169EC
:100200007A680A43DA6106E0044B044AD2697968E5
:10021000C9430A40DA61BD4602B080BD0010024009
:1002200080B586B000AF021CFB1D1A700023FB6076
:1002300000237B613B1C133300221A70FB1D1B78CB
:100240005B09DBB2FB60FB68002B03D1174B1B681B
:100250007B6110E0FB68012B03D1144B1B6A7B61AF
:1002600009E0FB68022B03D1104B5B6A7B6102E063
:100270000E4B5B6B7B61FB1D1A781F231340FB60E9
:10028000FB687A69DA400123134004D03B1C133326
:1002900001221A7003E03B1C133300221A703B1C2E
:1002A00013331B78181CBD4606B080BD00100240F9
:1002B00080B582B000AF0A1CFB1D011C1970BB1D6C
:1002C0001A701A4A80231B01101C191C01F056F9E0
:1002D000BB1D1B78002B07D1144A80235B01101C27
:1002E000191C01F04BF906E0104A80235B01101C39
:1002F000191C01F035F90E4AFB1D1B78101C191C46
:1003000000F07EFFC0460A4B181C802100F08EFFD3
:10031000031C002BF7D1054A80231B01101C191C5C
:1003200001F01EF9BD4602B080BDC0460004004881
:100330000038004080B582B000AF0A1CBB1D011C14
:1003400019807B1D1A70244A80231B01101C191C64
:1003500001F014F97B1D1B78002B07D11E4A802366
:100360005B01101C191C01F009F906E01A4A8023F0
:100370005B01101C191C01F0F3F8BB1D1B881B0A44
:100380009BB2DBB2154A101C191C00F039FFC046A5
:10039000124B181C802100F049FF031C002BF7D1E1
:1003A000BB1D1B88DBB20D4A101C191C00F028FF76
:1003B000C0460A4B181C802100F038FF031C002B9C
:1003C000F7D1054A80231B01101C191C01F0C8F845
:1003D000BD4602B080BDC046000400480038004061
:1003E00090B583B000AF041C081C111C1A1CFB1D27
:1003F0001C70BB1D18707B1D19703B1D1A702A20C4
:100400000021FFF755FF00200121FFF751FFFB1DE1
:100410001B78181C0121FFF74BFF00200121FFF77B
:1004200047FF7B1D1B78181C0121FFF741FF2B2084
:100430000021FFF73DFF00200121FFF739FFBB1D21
:100440001B78181C0121FFF733FF00200121FFF763
:100450002FFF3B1D1B78181C0121FFF729FF2C20C3
:100460000021FFF725FFBD4603B090BD80B500AF6A
:100470008023DB02181C0121FFF778FE8023DB01BB
:10048000181C0121FFF7AEFE634B802252011A6057
:10049000614B01221A71604B00229A715E4B00225F
:1004A000DA715D4B03225A715C4A5B4B101C191CBC
:1004B00000F096FF584B802212011A60574A564BA3
:1004C000101C191C00F08CFF534BA02212021A6062
:1004D000514B02221A71514A4F4B101C191C00F04B
:1004E0007FFF4E4B181C0D21002201F055F84B4B9D
:1004F000181C0F21002201F04FF8494B00229A816D
:10050000474B00221A81464B0022DA80444BE022FE
:10051000D2009A80424B434A1A80414B0022DA8132
:100520003F4B822252005A803D4B802292005A81DA
:100530003D4A3B4B101C191C00F0C0FD3A4B181CE7
:10054000012100F03DFE01200021FFF7B1FE0A204D
:1005500000F002F911200021FFF7AAFE142000F09C
:10056000FBF826200021FFF7A3FE01200121FFF761
:100570009FFEC0200021FFF79BFE10200121FFF706
:1005800097FE04200121FFF793FEC1200021FFF711
:100590008FFE04200121FFF78BFEC2200021FFF710
:1005A00087FE03200121FFF783FE04200121FFF7CE
:1005B0007FFEC3200021FFF77BFE00200121FFF713
:1005C00077FE07200121FFF773FEC5200021FFF70A
:1005D0006FFE24200121FFF76BFE7B200121FFF736
:1005E00067FE13200021FFF763FE3A200021FFF78A
:1005F0005FFE05200121FFF75BFE29200021FFF7A8
:1006000057FE36200021FFF753FE60200121FFF73F
:100610004FFEBD4680BDC0462C00002000040048AF
:100620001800002000C0FFFF00380040B0B582B0C5
:1006300000AF021C3960FB1D1A70FB1D1B787F2B5D
:1006400032D93049FB1D1B781A1C0F231340083B7D
:1006500098082C4AFB1D1B781C1C0F232340083BC9
:100660009B0806339B00D3185B68FA1D1278141C94
:1006700003222240D200FF24251C95402A1CD2438D
:100680001A403B689C01FF231C40FB1D1B781D1C6E
:1006900003232B40DB00251C9D402B1C1A43831D8C
:1006A0009B00CB185A6029E0174BFA1D127852B202
:1006B00092081549F81D007840B28008C0308000CB
:1006C0004158F81D0078041C03202040C000FF247E
:1006D000251C8540281CC043084039688C01FF2137
:1006E0000C40F91D09780D1C03212940C900251C67
:1006F0008D40291C0143C0329200D150BD4602B04A
:10070000B0BDC04600ED00E000E100E080B582B081
:1007100000AF78607A680E4B9A4201D9012312E04B
:100720000C4B7A681202120A013A5A6001235B42AA
:10073000181C0321FFF77AFF064B00229A60054B35
:1007400007221A600023181CBD4602B080BDC046B7
:10075000FFFFFF0010E000E080B584B000AF7860DC
:10076000064B1B68FB60C046044B1A68FB68D21A34
:100770007B689A42F8D3BD4604B080BD14000020C7
:1007800080B500AF034B1B685A1C024B1A60BD4674
:1007900080BDC0461400002080B582B000AF7860F4
:1007A0007B68322253437B6000E0C0467B685A1E60
:1007B0007A60002BF9D1BD4602B080BD80B500AF94
:1007C000144A80231B02101C191C00F0C9FE0A20C9
:1007D000FFF7E2FF0F4A80239B01101C191C00F059
:1007E000BFFE0A20FFF7D8FF0A4A80231B02101C15
:1007F000191C00F0C3FE0A20FFF7CEFF054A802334
:100800009B01101C191C00F0B9FE0A20FFF7C4FF61
:10081000BD4680BD0008004880B500AF0F4A802368
:100820001B02101C191C00F0A9FE0A20FFF7B4FFE0
:100830000A4A80239B01101C191C00F091FE0A201B
:10084000FFF7AAFF054A80231B02101C191C00F0A9
:1008500087FE0A20FFF7A0FFBD4680BD00080048C4
:1008600080B500AF144A80231B02101C191C00F035
:1008700077FE0A20FFF790FF0F4A80239B01101C90
:10088000191C00F06DFE0A20FFF786FF0A4A80233C
:100890009B01101C191C00F071FE0A20FFF77CFF61
:1008A000054A80231B02101C191C00F067FE0A2059
:1008B000FFF772FFBD4680BD0008004880B584B0D8
:1008C00000AF021CFB1D1A703B1C0F3300221A7074
:1008D00035E0FB1D1A783B1C0F331B789A408023B0
:1008E000134007D0364A80231B02101C191C00F04D
:1008F00037FE06E0324A80231B02101C191C00F050
:100900003DFE0A20FFF748FF2D4A80239B01101C63
:10091000191C00F025FE0A20FFF73EFF284A80231D
:100920009B01101C191C00F029FE0A20FFF734FF60
:100930003B1C0F331A783B1C0F3301321A703B1CDF
:100940000F331B78072BC4D90520FFF725FF1C4A5E
:1009500080231B02101C191C00F002FE0A20FFF766
:100960001BFF174A80239B01101C191C00F0F8FD87
:100970000520FFF711FF124A80231B02101C191CCF
:1009800000F0CAFD031C002B04D03B1C0E330022D8
:100990001A7003E03B1C0E3301221A70084A8023B0
:1009A0009B01101C191C00F0E9FD0A20FFF7F4FE62
:1009B0003B1C0E331B78181CBD4604B080BDC046DE
:1009C0000008004880B582B000AFBB1D00221A703D
:1009D000234A80231B02101C191C00F0C1FD0A20B1
:1009E000FFF7DAFEFB1D00221A702FE00A20FFF746
:1009F000D3FE1B4A80239B01101C191C00F0B0FD84
:100A00000A20FFF7C9FEBA1DBB1D1B78DB18137047
:100A1000134A80231B02101C191C00F07DFD031CCF
:100A2000002B04D0BB1D1A78BB1D01321A700C4A72
:100A300080239B01101C191C00F0A0FD0A20FFF769
:100A4000ABFEFB1D1A78FB1D01321A70FB1D1B78D3
:100A5000072BCBD9BB1D1B78181CBD4602B080BD2F
:100A60000008004880B582B000AF0A1CFB1D011CC5
:100A70001970BB1D1A70FFF7A1FE4220FFF71EFF81
:100A8000031C002B03D1FFF7C7FE002320E0052045
:100A9000FFF782FEFB1D1B78181CFFF70FFF031CDE
:100AA000002B03D1FFF7B8FE002311E00520FFF76C
:100AB00073FEBB1D1B78181CFFF700FF031C002BE7
:100AC00003D1FFF7A9FE002302E0FFF7A5FE0123F3
:100AD000181CBD4602B080BD80B582B000AF021CBC
:100AE0003960FB1D1A70FFF769FE4220FFF7E6FE32
:100AF000031C002B03D1FFF78FFE00232DE0052000
:100B0000FFF74AFEFB1D1B78181CFFF7D7FE031CDE
:100B1000002B03D1FFF780FE00231EE0FFF77CFED1
:100B20000520FFF739FEFFF749FE4320FFF7C6FE19
:100B3000031C002B03D1FFF76FFE00230DE00520FF
:100B4000FFF72AFEFFF73EFF031C1A1C3B681A70D2
:100B5000FFF786FEFFF760FE0123181CBD4602B0BA
:100B600080BDC04680B582B000AF12208021FFF763
:100B700079FF031C002B01D100232BE00A20FFF793
:100B8000EBFDFB1C0B20191CFFF7A6FF031C002B21
:100B900001D100231EE0FB1C1B78732B19D100230D
:100BA0007B6013E00D4A7B68D3181A780C497B6888
:100BB000CB181B78101C191CFFF754FF031C002BCB
:100BC00001D1002306E07B6801337B607B68A52BA5
:100BD000E8DD0123181CBD4602B080BD3C1F0008A3
:100BE000E41F000880B586B000AF0020FFF7A4FA2C
:100BF0000020FFF781FAA0239B030020191CFFF7B8
:100C000061FA0120FFF778FAC0461920FFF708FBC8
:100C1000031C002BF9D00220FFF78EFA80239B02E1
:100C2000181C0121FFF7A2FA8023DB02181C012106
:100C3000FFF79CFA80231B03181C0121FFF796FA8B
:100C400001200121FFF792FA80231B01181C0121CA
:100C5000FFF7AAFA01200121FFF7C4FA8023DB0184
:100C6000181C0121FFF7BEFAC54B802252001A6002
:100C7000C34B02221A71C24B00229A71C04B02224E
:100C8000DA71BF4B00225A719023DA05BC4B101C5D
:100C9000191C00F0A5FBBA4B08221A60B94AB84BE0
:100CA000101C191C00F09CFB9023DB05181C08216C
:100CB000022200F071FCB34B181C0321022200F049
:100CC0006BFCAF4BFF221A60AD4B00221A719023D0
:100CD000DA05AB4B101C191C00F082FBA84B8022DC
:100CE000D2011A60A84AA64B101C191C00F078FB10
:100CF000A34B01221A60A44AA14B101C191C00F03E
:100D00006FFB9F4BA02212021A609D4B01229A7129
:100D10009B4B01221A719C4A994B101C191C00F024
:100D20005FFB9A4B00221A81984B00225A80974B06
:100D3000FF225A60954B00221A80944B00229A722F
:100D4000934A924B101C191C00F074FC8F4B00222C
:100D50001A818E4B00225A808C4B01225A608B4B99
:100D600000221A80894B00229A728023DA05874B71
:100D7000101C191C00F05EFC864B802252001A8267
:100D8000844B30221A80834B00229A81814B0122AE
:100D90005A80804B00229A608023DA057D4B101C1C
:100DA000191C00F0DFFC8023DB05181C012100F07A
:100DB000B9FC794B00221A80774B00221A81764BBE
:100DC00000225A80744B0022DA80734B01229A80F1
:100DD0006F4A714B101C191C00F0A0FD6C4A802357
:100DE0009B00101C191C012200F068FE684B181CA7
:100DF000012100F097FC694B0122DA60674B102259
:100E00009A60664B00229A62644B654A5A60634B53
:100E10000022DA61614B00225A61604B20221A6283
:100E20005E4B604A1A605D4B00229A615B4B002268
:100E30001A615A4BC02292015A625B4A574B101CEE
:100E4000191C00F0E1F8594B1B68181CFA23990093
:100E500001F024F8031C181CFFF758FCC046FFF7EC
:100E600081FE031C002BFAD0FFF700FB504B504AC9
:100E700012681A600023BB6000237B6000233B6084
:100E80000023FB60002078219F227F23FFF7A8FA30
:100E900000233B610FE000237B6106E0002001217D
:100EA000FFF748FA7B6901337B617B699F2BF5DD96
:100EB0003B6901333B613B69072BECDDC046324A9D
:100EC0008023DB01101C191C00F026FB031C002BE7
:100ED000F5D0354B181C012100F0D2F8C0462A4A43
:100EE0008023DB01101C191C00F016FB031C002BD7
:100EF000F5D10023FB6032E0C0462E4B181C802148
:100F000000F094F9031C002BF7D1FA68FB6800206D
:100F1000111C9F22FFF764FA1A4A80231B01101C40
:100F2000191C00F02BFB174A80235B01101C191CB5
:100F300000F016FBC046144B181C012100F0ECFA1F
:100F4000031C002BF7D0C0460F4B181C012100F0EA
:100F5000E3FA031C002BF7D1FB680133FB60FB684D
:100F6000772BC9DDC046084A8023DB01101C191C01
:100F700000F0D2FA031C002BF5D0C046AEE7C04605
:100F80002C000020000400480008004860000020F9
:100F9000002C01406C000020800000203400002064
:100FA000100000480C3800401C00024000000020E7
:100FB00010E000E0003800400C488546002103E0C6
:100FC0000B4B5B58435004310A480B4B42189A4272
:100FD000F6D30A4A02E0002313600432084B9A4217
:100FE000F9D300F047F9FFF7FDFDFEE700200020F0
:100FF0008C200008000000201400002014000020B5
:101000008C000020FEE7000080B584B000AF78605F
:1010100039600023FB607B681B68FB60FA68174B34
:101020001340FB603B689A683B681B6A1A433B6845
:101030001B691A433B685B691A433B689B691A4307
:101040003B68DB691A433B685B6A1A433B689B6AEF
:101050001343FA681343FB607B68FA681A603B68C5
:10106000DA687B685A603B681A687B689A603B68FC
:101070005A687B68DA60BD4604B080BD0F80FFFF10
:1010800080B582B000AF78600A1CFB1C1A70FB1C94
:101090001B78002B06D07B681B6801221A437B68F3
:1010A0001A6005E07B681A68034B1A407B681A6077
:1010B000BD4602B080BDC046FEFF000080B584B0D2
:1010C00000AF786039603B1C0E3300221A803B1C55
:1010D0000E337A6812881A803B1C0E333A1C0E328B
:1010E0001188C12292010A401A803B681A883B6825
:1010F000DB8913439AB23B68DB8813439AB23B689F
:101100001B8913439AB23B685B8913439AB23B68CD
:101110009B89134399B23B1C0E333A1C0E32128842
:101120000A431A807B683A1C0E3212881A803B1CD4
:101130000E337A6892881A803B1C0E333A1C0E32AA
:1011400011881D4A0A401A803B6899883B1C0E335F
:101150003A1C0E3212880A431A807B683A1C0E32FF
:1011600012889A803B681A8A7B681A823B1C0E336D
:101170007A6812881A803B1C0E333A1C0E32128891
:1011800004218A431A803B6859883B1C0E333A1C61
:101190000E3212880A431A807B683A1C0E3212887B
:1011A0001A807B689B8B9AB2044B13409AB27B687F
:1011B0009A83BD4604B080BDFFF0FFFFFFF7FFFF3D
:1011C00080B582B000AF78600A1CFB1C1A70FB1C53
:1011D0001B78002B08D07B681B889BB240221343EE
:1011E0009AB27B681A8007E07B681B889BB240221A
:1011F00093439AB27B681A80BD4602B080BDC04658
:1012000080B584B000AF78600A1CFB1C1A70002304
:10121000FB607B68FB60FB680C33FB60FB68FA1CBF
:1012200012781A70BD4604B080BDC04680B584B047
:1012300000AF78600A1CBB1C1A803B1C0F330022D5
:101240001A707B681B899BB2BA1C128813409BB230
:10125000002B04D03B1C0F3301221A7003E03B1C0F
:101260000F3300221A703B1C0F331B78181CBD462D
:1012700004B080BD80B500AF1B4B1B4A1268012132
:101280000A431A60184B184A5168184A0A405A60B3
:10129000154B154A1168164A0A401A60124B124A39
:1012A0001168144A0A401A600F4B0F4A5168124ADB
:1012B0000A405A600C4B0C4AD26A0F218A43DA6208
:1012C000094B094A116B0D4A0A401A63064B064A3C
:1012D000526B01218A435A63034B00229A6000F04B
:1012E0000FF8BD4680BDC046001002400CB8FFF8A4
:1012F000FFFFF6FEFFFFFBFFFFFFC0FFACFEFFFF9F
:1013000080B582B000AF00237B6000233B60314B8F
:10131000304A1268802149020A431A602D4B1A682C
:1013200080239B0213403B607B6801337B603B68FA
:10133000002B04D17A68A023DB019A42EED1254B21
:101340001A6880239B02134002D001233B6001E016
:1013500000233B603B68012B38D11F4B11221A60E0
:101360001C4B1C4A52685A601A4B1A4A52685A60FF
:10137000184B184A5168194A0A405A60154B154AC9
:101380005268882149030A435A60124B114A126875
:10139000802149040A431A60C0460E4B1A68802314
:1013A0009B041340F9D00B4B0A4A526803218A432D
:1013B0005A60084B074A526802210A435A60C046E5
:1013C000044B5A680C231340082BF9D1BD4602B0D8
:1013D00080BDC0460010024000200240FFFFC0FF59
:1013E00080B586B000AF7860396000237B61002350
:1013F0003B610023FB6000237B6185E07B69012268
:10140000101C9840031C3B613B681B683A69134001
:10141000FB60FA683B699A4273D13B681B79012BE8
:1014200003D03B681B79022B38D17B689B687A69B3
:1014300052000321081C9040021CD2431A407B68D2
:101440009A607B689A683B685B79191C7B695B00D2
:10145000081C9840031C1A437B689A607B689B8831
:101460009BB27A6992B20121081C9040021C92B290
:10147000D24392B213409AB27B689A807B689B8871
:101480009AB23B689B79191C7B699BB2081C9840F7
:10149000031C9BB213439AB27B689A807B681B68DB
:1014A0007A6952000321081C9040021CD2431A4062
:1014B0007B681A607B681A683B681B79191C7B691A
:1014C0005B00081C9840031C1A437B681A607B6809
:1014D000DB687A6992B252000321081C9040021C1A
:1014E000D2431A407B68DA607B68DA683B68DB7954
:1014F000191C7B695B00081C9840031C1A437B681D
:10150000DA607B6901337B617B690F2B00D875E75B
:10151000BD4606B080BDC04680B584B000AF7860DF
:101520000A1CBB1C1A803B1C0F3300221A707B68FC
:101530001B8A9BB2BA1C128813409BB2002B04D0AA
:101540003B1C0F3301221A7003E03B1C0F330022B7
:101550001A703B1C0F331B78181CBD4604B080BDAD
:1015600080B582B000AF78600A1CBB1C1A80BB1C1F
:101570001A887B689A61BD4602B080BD80B582B092
:1015800000AF78600A1CBB1C1A807B68BA1C1288EA
:101590001A85BD4602B080BD90B585B000AF7860B9
:1015A000BB1C19807B1C1A700023FB600023BB60EE
:1015B0007B1C1A78BB1C198807230B409B00111C4D
:1015C00099400B1CFB60BB1C1B88DB089BB21A1CE0
:1015D000BB1C1B88DB089BB2191C7B680831890087
:1015E000CB58B91C08880721014089000F20041C32
:1015F0008C40211CC94319407B6808329200D150AD
:10160000BB1C1B88DB089BB21A1C7B68083292004B
:10161000D258FB681343BB60BB1C1B88DB089BB222
:101620001A1C7B6808329200B968D150BD4605B0DB
:1016300090BDC04680B584B000AF786039603B1C77
:101640000E3300221A803B1C0E337A6812881A80EF
:101650007A682D4B9A4208D07A688023DB059A423B
:1016600003D07A68294B9A4210D13B1C0E333A1CA6
:101670000E32128870218A431A803B6859883B1CBD
:101680000E333A1C0E3212880A431A807A68204BB5
:101690009A4210D03B1C0E333A1C0E3211881D4A60
:1016A0000A401A803B6819893B1C0E333A1C0E32E3
:1016B00012880A431A807B683A1C0E3212881A80FC
:1016C0003B685A687B68DA623B681A887B681A85CF
:1016D0007A680D4B9A420BD07A680F4B9A4207D02A
:1016E0007A680E4B9A4203D07A680D4B9A4204D125
:1016F0003B689B7A1A1C7B681A867B6801229A8257
:10170000BD4604B080BDC046002C0140000400402E
:1017100000100040FFFCFFFF00400140004401407A
:101720000048014080B582B000AF78600A1CFB1C05
:101730001A70FB1C1B78002B08D07B681B889BB29F
:10174000012213439AB27B681A8007E07B681B88EA
:101750009BB2012293439AB27B681A80BD4602B0C5
:1017600080BDC04680B584B000AF786039603B1C56
:101770000A3300221A803B1C0E3300221A803B1CC5
:101780000C3300221A807B681B8C9BB2102293437F
:101790009AB27B681A843B1C0E337A68128C1A80CA
:1017A0003B1C0C337A6892881A803B1C0A337A6897
:1017B000128B1A803B1C0A333A1C0A321188514A98
:1017C0000A401A803B1C0A333A1C0A3211884E4ADE
:1017D0000A401A803B681B881B0299B23B1C0A33E3
:1017E0003A1C0A3212880A431A803B1C0E333A1CF8
:1017F0000E32128820218A431A803B689B891B0184
:1018000099B23B1C0E333A1C0E3212880A431A80DE
:101810003B685B881B0199B23B1C0E333A1C0E32AD
:1018200012880A431A807A68384B9A4203D07A6841
:10183000374B9A424FD13B1C0C333A1C0C32118867
:10184000344A0A401A803B681B8A9B0099B23B1CB1
:101850000C333A1C0C3212880A431A807A682B4BDC
:101860009A4238D13B1C0E333A1C0E32128880212A
:101870008A431A803B68DB891B0199B23B1C0E33FB
:101880003A1C0E3212880A431A803B1C0E333A1C53
:101890000E32128840218A431A803B689B881B01C4
:1018A00099B23B1C0E333A1C0E3212880A431A803E
:1018B0003B1C0C333A1C0C321188174A0A401A8020
:1018C0003B685B8A9B0099B23B1C0C333A1C0C3280
:1018D00012880A431A807B683A1C0C3212889A805C
:1018E0007B683A1C0A3212881A833B689A687B68C4
:1018F0009A637B683A1C0E3212881A84BD4604B083
:1019000080BDC046FF8FFFFFFFFCFFFF002C0140A2
:1019100000400140FFFBFFFFFFF7FFFF80B582B0F3
:1019200000AF786039603B681B88002B10D13B68A2
:1019300059883B689A883B681B89786800F0E2F810
:101940003B68DB887A68101C191C00F03FF839E00E
:101950003B681B88042B10D13B6859883B689A88E8
:101960003B681B89786800F031F93B68DB887A684E
:10197000101C191C00F046F824E03B681B88082B5B
:1019800010D13B6859883B689A883B681B89786806
:1019900000F094F93B68DB887A68101C191C00F091
:1019A00051F80FE03B6859883B689A883B681B896F
:1019B000786800F0F7F93B68DB887A68101C191C1E
:1019C00000F05CF8BD4602B080BDC04680B582B074
:1019D00000AF78600A1CBB1C1A807B681B8B9BB213
:1019E0000C2293439AB27B681A837B681B8B9AB252
:1019F000BB1C1B8813439AB27B681A83BD4602B096
:101A000080BDC04680B582B000AF78600A1CBB1CA8
:101A10001A807B681B8B9AB2094B13409AB27B6881
:101A20001A837B681B8B9AB2BB1C1B881B029BB260
:101A300013439AB27B681A83BD4602B080BDC0468C
:101A4000FFF3FFFF80B582B000AF78600A1CBB1CBB
:101A50001A807B689B8B9BB20C2293439AB27B6863
:101A60009A837B689B8B9AB2BB1C1B8813439AB2E8
:101A70007B689A83BD4602B080BDC04680B582B007
:101A800000AF78600A1CBB1C1A807B689B8B9AB2E3
:101A9000094B13409AB27B689A837B689B8B9AB2FE
:101AA000BB1C1B881B029BB213439AB27B689A83B0
:101AB000BD4602B080BDC046FFF3FFFF80B582B0D7
:101AC00000AF7860BB1C19807B1C1A707B1C1B78D4
:101AD000002B09D07B689B899AB2BB1C1B881343DF
:101AE0009AB27B689A810AE07B689B899BB2BA1C98
:101AF0001288D24392B213409AB27B689A81BD4653
:101B000002B080BD80B586B000AFF860081C111C23
:101B10001A1C3B1C0A3318803B1C08331980BB1D60
:101B20001A803B1C163300221A803B1C14330022FF
:101B30001A80FB681B8C9BB2012293439AB2FB680C
:101B40001A843B1C1633FA68128B1A803B1C143320
:101B5000FA68128C1A803B1C16333A1C1632128813
:101B6000F3218A431A80BB1D1B881B019AB23B1CC0
:101B700008331B88134399B23B1C16333A1C1632A8
:101B800012880A431A803B1C14333A1C1432128800
:101B90000A218A431A803A1C0A323B1C14331288E9
:101BA0001B8813439AB23B1C143301210A431A8049
:101BB000FB683A1C163212881A83FB683A1C1432EE
:101BC00012881A84BD4606B080BDC04680B586B076
:101BD00000AFF860081C111C1A1C3B1C0A3318804B
:101BE0003B1C08331980BB1D1A803B1C1633002296
:101BF0001A803B1C143300221A803B1C1233002233
:101C00001A80FB681B8C9BB2102293439AB2FB682C
:101C10001A843B1C1633FA68128B1A803B1C14334F
:101C2000FA68128C1A803B1C12333A1C0A32128852
:101C300012011A803B1C16333A1C163211881E4AB8
:101C40000A401A80BB1D1B881B0399B23B1C16332C
:101C50003A1C163212880A431A803B1C08331B8830
:101C60001B0299B23B1C16333A1C163212880A43E7
:101C70001A803B1C14333A1C14321288A0218A4368
:101C80001A803A1C12323B1C143312881B881343EF
:101C90009AB23B1C143310210A431A80FB683A1C89
:101CA000163212881A83FB683A1C143212881A847E
:101CB000BD4606B080BDC046FF0C000080B586B0B2
:101CC00000AFF860081C111C1A1C3B1C0A3318805A
:101CD0003B1C08331980BB1D1A803B1C16330022A5
:101CE0001A803B1C143300221A803B1C1233002242
:101CF0001A80FB681B8C9AB2284B13409AB2FB687F
:101D00001A843B1C1633FA68928B1A803B1C1433DE
:101D1000FA68128C1A803B1C12333A1C0A32128861
:101D200012021A803B1C16333A1C16321288F32119
:101D30008A431A80BB1D1B881B019AB23B1C0833C7
:101D40001B88134399B23B1C16333A1C1632128877
:101D50000A431A803B1C14333A1C14321188104A6F
:101D60000A401A803A1C12323B1C143312881B881A
:101D700013439AB23B1C1433802149000A431A8052
:101D8000FB683A1C163212889A83FB683A1C14329C
:101D900012881A84BD4606B080BDC046FFFEFFFF14
:101DA000FFF5FFFF80B586B000AFF860081C111C7E
:101DB0001A1C3B1C0A3318803B1C08331980BB1DBE
:101DC0001A803B1C163300221A803B1C143300225D
:101DD0001A803B1C123300221A80FB681B8C9AB2BB
:101DE0002B4B13409AB2FB681A843B1C1633FA68DB
:101DF000928B1A803B1C1433FA68128C1A803B1C9D
:101E000012333A1C0A32128812031A803B1C163312
:101E10003A1C163211881F4A0A401A803B1C0833AC
:101E20001B881B0299B23B1C16333A1C16321288CF
:101E30000A431A80BB1D1B881B0399B23B1C163337
:101E40003A1C163212880A431A803B1C14333A1C7F
:101E500014321188104A0A401A803A1C12323B1C74
:101E6000143312881B8813439AB23B1C143380210D
:101E700049010A431A80FB683A1C163212889A8379
:101E8000FB683A1C143212881A84BD4606B080BD25
:101E9000FFEFFFFFFF0C0000FF5F0000002934D0C0
:101EA0000123002210B488422CD301242407A1422C
:101EB00004D2814202D209011B01F8E7E400A142E9
:101EC00004D2814202D249005B00F8E7884201D384
:101ED000401A1A434C08A04202D3001B5C0822435C
:101EE0008C08A04202D3001B9C082243CC08A042CD
:101EF00002D3001BDC082243002803D01B0901D0B9
:101F00000909E3E7101C10BC7047002801D000202D
:101F1000C04307B4024802A14018029003BDC04666
:101F2000190000000029F0D003B5FFF7B9FF0EBC7F
:101F30004243891A1847C0467047C046003A4012CB
:101F4000321718191A030C3E70717273A2117A7B42
:101F50007C7D7E7F8081828384858687888913004B
:101F6000100D14A5AB2425269FA0A1A6A7A8A9AA59
:101F7000130E0F161E21222933353738393C4D4EAA
:101F8000696B748D8E8F909192969AB0B1B2B3B8FE
:101F9000434445464748595A5B5C5D5E64656694B8
:101FA000956C6D6E6F6A13154F50515253545556C0
:101FB0005758413F75764C773D4BC941343BA49609
:101FC0009798999A9B9C9D9E7879C879C879C87989
:101FD000C879C879C879C879C879C879C879C86909
:101FE000093B2D1B00041004B61301027A0A041ADF
:101FF0003A3522F20204201C283C55687680888FEE
:1020000096A3AFC4D7E8E70000001005077563A5E5
:10201000786803DFDFF09094E5614B0207029107D7
:102020000B0B1D712A7840205DC0194F0000000085
:10203000000080840C0E820A14F03458283A8888F4
:102040004467490E04200504080A55119F40E724FF
:10205000808000225E800040909E080005E10F0A0B
:10206000C2092838110289003020308429034C3FEE
:102070000401F00F00107E0A800B010C0F0D2009E7
:0C2080008002C003400530AA0042010F9E
:10208C00006CDC02000000000000000001020304F0
:04209C000607080922
:0400000508000000EF
:00000001FF
